S01400006D6963726F5F6E6565646C652E737265632A
S11300004806002049270000452700004527000036
S113001000000000000000000000000000000000DC
S11300200000000000000000000000004527000060
S113003000000000000000004527000045270000E4
S113004045270000452700004527000045270000FC
S11300503106000045270000452700004527000021
S1130060452700002919000039190000491900002A
S1130070FD2300009D240000A72400004527000064
S113008045270000452700004527000010B5064C11
S11300902378002B07D1054B002B02D0044800E045
S11300A000BF0123237010BD2000002000000000C9
S11300B0D02F0000084B10B5002B03D00749084887
S11300C000E000BF07480368002B00D110BD064BB9
S11300D0002BFBD09847F9E7000000002400002023
S11300E0D02F0000D02F00000000000010B58CB00D
S11300F0684600F05DF80D4C6A460D49200000F09A
S11301007BF82268537E5BB2002BFBDB0F239375D5
S11301101376137802210B431370044B1A68537E31
S11301205BB2002BFBDB0CB010BDC0469C00002072
S11301300020004230B51C4B19684B7E5BB2002B8B
S1130140FBDB0B7B022213430B734B7E5BB2002B56
S1130150FBDB01200425022401E010420AD10B7EBE
S1130160DBB202001A401D4200D022431C42F4D0EC
S11301702A43F2E74B7E5BB2002BFBDB4A8B0B4B33
S11301801A8001230B760A7ED2B21340500701D5A0
S113019002200343920701D5042213435B0701D5D0
S11301A002230B7630BDC0469C000020980000203E
S11301B010B50022002302704270002142800171B8
S11301C003760262C26182600373C0246401C48145
S11301D0037443748374C37403752A2403554375E9
S11301E08375063C0355C2840285C1752B23C15413
S11301F00133C15410BD0000F0B5DE4657464E46EB
S1130200C0B596B0070016000160BD4A106A80238D
S11302105B00034313620B780520DB0705D516B09A
S11302201CBC91469A46A346F0BD0B7817309B0739
S1130230F5D473783B71002B04D1B24A136C0421BA
S11302400B4313643B689B4633786A4613706946D4
S1130250132001F08BFD132001F04AFD2C23F25CE6
S1130260002A57D0013BF55C337BEB18DBB2D11885
S1130270C9B28B4224D25219D3B299460F239A465B
S113028003E00135EDB2A9451AD0337B54462C4026
S1130290E41850229C4902A802F076FD092CF0D8FB
S11302A0A4006B4608229B18185901A900234B701F
S11302B0CB708B7001330B70C0B201F0CBFDE0E763
S11302C0F4895022904902A802F05EFD092C13D94A
S11302D0737D9B00DBB25A461370B37DDB017278E9
S11302E01343DBB25A4653703379342B00D971E18E
S11302F09B00864AD3589F46A40002ABE05801A94C
S113030000234B70CB708B7001330B70C0B201F0C3
S1130310A1FDDDE7347B50227B4902A802F034FDC5
S1130320092C15D9F4895022774902A802F02CFD32
S1130330092CCDD8A40002ABE05801A900234B70CE
S1130340CB708B7001330B70C0B201F083FDBFE73B
S1130350A40002ABE05801A900234B70CB708B7052
S113036001330B70C0B201F075FDDBE704231024E8
S113037002211AE0717C337C102416E00623102439
S1130380012112E00823102400210EE00023302470
S113039000210AE000232024002106E00023002499
S11303A0002102E0022310240121090170220A40E5
S11303B013435A469370F37D17203F2B00D92EE741
S11303C0D3703A68537E5BB2002BFBDBF37C7288FC
S11303D013432422B25CD2001343327D92001343B0
S11303E0B27C5200134323435A469380337E002B3E
S11303F020D0102C00D1CFE000D88FE0202C00D1E9
S1130400ACE0302C16D1F27C002A0AD0F26980329A
S11304101720FF2A00D902E7326A8032FF2A00D966
S1130420FDE61720F269FF2A00DDF8E6326AFF2AAA
S113043000DDF4E639684A7E52B2002AFBDB5A46F4
S113044013723A68537E5BB2002BFBDBB38B5A46C4
S113045093833A68537E5BB2002BFBDB338C5A46A2
S113046013842C23F35C002B05D0013BDBB2172053
S11304700F2B00D9D3E62B22B15C17200F2900D90A
S1130480CDE63868427E52B2002AFBDBF289307B2B
S11304900243B068024309050A431B0413435A4646
S11304A013612A23F35C13750F2393751533F35CDF
S11304B0002B12D0F38C164A1720934200D9AEE6D3
S11304C05A469384328D80231B01D31810499BB262
S11304D08B4200D9A3E65B46DA840E4B1B685B01B2
S11304E0E022D20013400C4A516849011268D20E2E
S11304F00A43D2B213435A46138500208FE6C046FE
S11305000004004000080040702E00009C2D0000F4
S1130510FF0F00002460800020608000002C89D13F
S1130520F27C002A0FD0F269802109018C466244D2
S1130530294917208A4200D971E6326A6244264961
S11305408A4200D96BE6244A1720F169914200DD02
S113055065E6316A914200DD61E66BE7F27C002AD0
S11305600FD0F269802189008C4662441B49172010
S11305708A4200D953E6326A624418498A4200D951
S11305804DE6164A1720F169914200DD47E6316ACB
S1130590914200DD43E64DE7F27C002A0FD0F26978
S11305A0802109028C4662440D4917208A4200D9F1
S11305B035E6326A62440A498A4200D92FE6084A7B
S11305C01720F169914200DD29E6316A914200DD8C
S11305D025E62FE7172022E6FF0F0000FF030000A7
S11305E0FFFF00001723002A01D0180070478B007A
S11305F0064A9B58002B03D0834205D01D23F4E701
S1130600890088500023F0E70023EEE7A8000020CB
S11306101723002901D01800704700221F2800D892
S1130620024A01238340D3600023F4E7001800400A
S113063070B50022104B1A70002310491F25104E6C
S11306400D4C0AE00D4908E023780133DBB2237036
S11306500F2B10D800211F2BF4D928001840012299
S1130660824008691042EFD00A619B009B59002B1D
S1130670EAD09847E8E770BDA400002000180040C5
S1130680A8000020044A137802210B431370537806
S11306905BB2002BFBDB70470018004000B583B051
S11306A0124A936940210B43936101A900230B7003
S11306B0052001F05BFB052001F01AFB0C4A1378BE
S11306C001210B43137053785BB2002BFBDB094B06
S11306D019004031002204C39942FCD11022064B78
S11306E01A60FFF7CFFF03B000BDC046000400400E
S11306F000180040A800002000E100E0002303608F
S1130700436001220272427283720233C3727047E1
S1130710F0B583B005000C0001A900234B70CB7029
S113072023790B70237A8B70207801F093FB0020DF
S11307301F2D00D8124807222A409200E77AA37A94
S1130740002B01D008231F43EB089B00C3189969B1
S11307500F269640B14397403A000A439A61637A60
S1130760002B06D143690122AA409343436103B09D
S1130770F0BD42690123AB4013434361F7E7C04630
S113078000180040184B1B6A1B041DD40122174B90
S11307901A70174A1368013B1360164A1368013B29
S11307A01360002B05DC0122134B1A700022114B3D
S11307B01A600F4B1B68002B10DC00230F4A1370C8
S11307C00B4A136001200DE00022084B1A700A3214
S11307D0074B1A602332FF32064B1A600122074B83
S11307E01A7000207047C046004400413C000020BD
S11307F004000020000000203E0000203D000020F6
S113080010B5002911D00D4A01000D4801F0CAFDB0
S11308100B4B1A6804211F2093681942FCD15379A9
S1130820834308D0602BF7D107E00022010004487D
S113083001F0B8FDECE76023537110BDFF0F000019
S1130840E800002010B500210020FFF7D9FF0021A7
S11308500220FFF7D5FF00210120FFF7D1FF00217F
S11308600320FFF7CDFF10BD10B5062807D8800080
S1130870184B1B589F4601210020FFF7C1FF10BDF4
S113088001210120FFF7BCFFF9E701210220FFF756
S1130890B7FFF4E701210320FFF7B2FFEFE70121DF
S11308A00020FFF7ADFF01210120FFF7A9FFE6E7D4
S11308B001210020FFF7A4FF01210220FFF7A0FF80
S11308C0DDE701210220FFF79BFF01210120FFF753
S11308D097FFD4E7C02E000070B51B4D1B4C2900B8
S11308E0200001F007FB02232376194B63600023E9
S11308F0E36163622362A3620422A2650521A16706
S1130900013398202354E165E167943163549139AC
S11309102166783162501A316354913961667B31B2
S113092062509732A3540B4E22002900300001F08C
S11309307FFB3268022193681942FCD113680221BB
S11309400B43136070BDC0460014004244010020F4
S1130950FF0F0000E800002010B50022094B1A60C8
S1130960094B1B78012B02D0062B04D010BD0020AC
S1130970FFF77AFFFAE70022034B1A70FFF762FFD2
S1130980F4E7C046480000203F00002010B50D4B9E
S11309901B68002B09DD0B4B1B68023B012B08D99C
S11309A0084B1B68032B08DC10BD0020FFF75CFF1D
S11309B0F1E70120FFF758FFF2E70220FFF754FFA9
S11309C0F2E7C0464800002000B58FB001AA00231A
S11309D0002113701381002050709172D172117331
S11309E09173517311771362536213855385938501
S11309F004339370A021C9009180552029215054BB
S1130A004038013150541631917136395161936136
S1130A10033B13740249034801F05CFD0FB000BDB1
S1130A20001C0042E801002010B5094B1A68D37B72
S1130A305BB2002BFBDB138802210B4313804022A3
S1130A40044B9A613F3A044B1A7001F0CBFF10BD7E
S1130A50E8010020004400414100002010B50023BB
S1130A600E4A1370FF210E4A11700E4A13700E4C79
S1130A7015220021200001F03DFE2268D37B5BB2E9
S1130A80002BFBDB3B2313739373138802218B43EB
S1130A9013804022054B5A6110BDC046420000201D
S1130AA00800002041000020E8010020004400412B
S1130AB010B5164B1B78002B08D0154B1B78022B56
S1130AC005D0032B0BD0042B11D01BD810BD222230
S1130AD00021104801F00EFE01F0AEFFF6E74D22B2
S1130AE000210C4801F006FE01F0D2FFEEE70122DE
S1130AF0094B1A704C320021064801F0FBFD01F04D
S1130B00F3FFE3E7FFF7AAFFE0E7C0464100002058
S1130B1008000020E8010020420000200A4B1B7856
S1130B20002B09D0094B1B78002B06D10122074B5F
S1130B301A703F32064B9A6170474022044B5A6147
S1130B400022024B1A70F7E7420000204000002008
S1130B500044004110B5FFF781FFFFF773FE002248
S1130B60024B1A7001F096FE10BDC0463F000020F3
S1130B7010B5FFF707FE002831D0304A304B1A6019
S1130B80304B1B78002B25D12F4B1B78002B26D103
S1130B902E4B1B78002B22D12D4B1B78002B1ED102
S1130BA001332A4A1370284A13702A4A13780133EE
S1130BB01370294A137801331370FFF7CDFE274BC6
S1130BC01B78002B03D1244B1B78012B24D0FFF777
S1130BD06FFF04E0FFF7BEFF00221A4B1A70204B90
S1130BE01B78002B04D00023174A1370174A137084
S1130BF01C4B1B78002B12D1154B1B78002B0AD0F1
S1130C00164B1B78002B12D1174B1B78002B11D0DD
S1130C100022164B1A7010BDFFF706FFDFE7FFF73F
S1130C201DFFFFF70FFE00220A4B1A70E4E7FFF7DF
S1130C3091FFE9E701220D4B1A70ECE7B80B0000B5
S1130C400C0000203E0000204D0000204C0000203D
S1130C50050200203F000020080000204100002081
S1130C603D00002046000020060200204400002031
S1130C70204B1B78002B34D11F4B1B881F4A9342F7
S1130C8014D91F4A9A1892B2232A18D91D4A944695
S1130C9063446C22FF329BB2934219D800231A4A50
S1130CA013701A4A13701A4A137021E00122164B6A
S1130CB01A700023154A1370154A137018E00023A4
S1130CC0114A13700121114A1170114A13700FE077
S1130CD000230D4A13700D4A137001220C4B1A7035
S1130CE006E00C4B1B78002B02D00122084B1A7033
S1130CF07047C04605020020980000204D0C0000FB
S1130D00B2F3FFFF8EF3FFFF4600002045000020F2
S1130D10430000200702002010B5FFF71BFF044A20
S1130D20136904210B431361BFF34F8F30BF10BD10
S1130D3000ED00E010B51D4B1B78002B08D11C4BB7
S1130D401B78002B0CD11B4B1B78002B27D110BD1B
S1130D500022164B1A7000F0EFF9FFF709FFEEE7D7
S1130D600022134B1A70FFF7D9FEFFF7E3F9FFF7E0
S1130D707FFF114B1B78002B0DD1104B1B680133E7
S1130D80072B04DC0D4A1360FFF700FEDBE70722A4
S1130D900A4B1A60F8E70022084B1A60D3E70022D6
S1130DA0044B1A70FFF7B8FFD1E7C046500000208B
S1130DB0510000204E0000200800002048000020C0
S1130DC0244A136801331360092B09DD224A13688E
S1130DD00133136000221F4B1A6001321F4B1A703B
S1130DE01D4B1B68042B09DD1D4A13680133136076
S1130DF00022194B1A6001321A4B1A70184B1B68E7
S1130E00012B09DD184A1368013313600022144BC7
S1130E101A600132154B1A70134B1B68012B10DD3D
S1130E20134A13680133136000220F4B1A60013216
S1130E30104B1A70104A1368013B1360002B05DD38
S1130E4070470C4B1B78002BFAD0F3E701220B4BB5
S1130E501A70F5E75C0000205800002050000020C4
S1130E606400002052000020540000204F000020A5
S1130E7060000020510000200C0000204E000020E3
S1130E80014A024B1A607047B80B00000C000020A6
S1130E90F0B583B001AC00262670A67002276770F7
S1130EA021001B2000F086F90125257067702100C0
S1130EB0062000F07FF9257065702100072000F0FE
S1130EC079F92670657021000F2000F073F92670FF
S1130ED0677021000B2000F06DF925706770210008
S1130EE0032000F067F925702100102000F062F95A
S1130EF02670657021000E2000F05CF903B0F0BD8F
S1130F0010B58EB001AA00230021137093711381D0
S1130F10002050709172D1721173917351735361A7
S1130F209361117713625362138553859385043358
S1130F309370A023DB0093806F212923D154283B95
S1130F401374084C0849200001F0C4FA2268D37BCA
S1130F505BB2002BFBDB138802210B4313800EB022
S1130F6010BDC046280100200018004210B50C4CEA
S1130F7000220C49200001F046FA206801F098FA9A
S1130F80094B1A5C1F231340012211009940074B9F
S1130F901960637E01210B43637623685A7310BD85
S1130FA028010020C10D0000DC2E000000E100E05B
S1130FB0F0B585B001AC2000FFF7A0FB0F2301932F
S1130FC0002767600125657225720326E6722100F9
S1130FD00120FFF79DFB2000FFF790FB0B230193FB
S1130FE0676065722572E67221000320FFF790FBAB
S1130FF005B0F0BD10B50A4C002201212000FFF716
S1131000F1FA00210120FFF703FB00220321200055
S1131010FFF7E8FA00210320FFF7FAFA10BDC046F3
S1131020810E0000024A936940210B43936170478B
S113103000040040064B40225A6140329A618022EB
S113104012025A61802212015A6108229A61704781
S11310500044004110B500F014FF01220F4B1A7038
S1131060BFF35F8F62B6FFF713FFFFF7E3FF01F0F3
S113107083FDFFF745FFFFF779FFFFF72DFCFFF72F
S113108035F8FFF7A1FCFFF7CDFFFFF791FFFFF75E
S1131090B1FF034A034B1A6010BDC0461000002084
S11310A0B80B00000C00002006490B6ADB0E01227D
S11310B01340054803700B6ADB0A1A40034B1A708D
S11310C07047C0460044004105020020070200208A
S11310D010B5134B1B78002B09D0124B1B78002B37
S11310E002D101F0F3FB10BD01F09CFBFBE70E4BBA
S11310F01B78002BF7D10D4B1B78002BF3D10C4B35
S11311001B78002B06D10B4B1B78002B05D101F06B
S1131110A5FBE8E701F020FCE5E701F083FBE2E74B
S113112005020020070200204100002046000020A4
S1131130450000204300002010B5FFF7B5FFFFF77E
S1131140C7FF10BD0C4B1B68002B06D1EFF31083B7
S1131150002B07D00022094B1A70074A1368013389
S11311601360704772B6BFF35F8F0022044B1A708E
S11311700132024B1A70F0E7680000206C00002076
S113118010000020084B1A68013A1A601B68002BF3
S113119009D1064B1B78002B05D00122044B1A7091
S11311A0BFF35F8F62B67047680000206C000020B8
S11311B01000002000B583B001AB80221A700A78B9
S11311C05A704A789A708A78DA70190000F042FEF0
S11311D003B000BD01680722CB691A42FCD17047F5
S11311E0F0B5CE46474680B583B007000D00160023
S11311F03960080000F04EFB584A116A841C012330
S1131200A3400B43136201A9337B0B700E30C4B2AD
S1131210200000F0ABFD200000F06AFD307B0021CF
S113122000F0B6FA2B681C209B0704D503B00CBC55
S113123090469946F0BD2B681738DB07F6D438681A
S113124000F028FB0400464900F042FBA400454B93
S1131250E75000233B767B76002290467B83BB835A
S113126025224146B9543B6214332B603C6820006C
S113127000F010FB814680236A4613706B46424699
S11312805A7001236A4693706B464246DA70F069DD
S1131290356A002857D06B46187002236A4653708B
S11312A0000CC0B2694600F0D5FD002D50D06B464D
S11312B01D7002236A465370280CC0B2694600F0C0
S11312C0C9FDB38AFB80F38A3B81337E8022002BE5
S11312D004D1254B9B789B07DB0FDA01B168336996
S11312E00B4313432422B25C002A02D08022D2058D
S11312F01343B26A13432C22B25C002A03D1802226
S11313009204914202D18022120513432D22B25C31
S1131310002A02D08022120413432E22B25C002A37
S113132002D08022D2031343226813432360802314
S11313305B0063604D460E35E8B200F023FD2323C5
S1131340E360002072E70021200000F043FAA2E7E6
S11313500121200000F03EFA0500A8E70004004047
S1131360B1150000080200200020004103681A7E25
S1131370920707D502221A765B8B9B074120DB1765
S1131380184070475A8B520706D55968C0229202FA
S11313900A435A601820F4E70020F2E730B50268E7
S11313A0002301240225117E21420BD1117E294202
S11313B006D101339BB201899942F4D8122002E08C
S11313C0002000E0002030BD10B50468626880236E
S11313D0DB02134363606162FFF7E0FF01232376BE
S11313E010BD0000F0B5DE4657464E464546E0B512
S11313F083B006000F0005684C88FFF7EBFE7B7A8C
S1131400002B1DD16B68304A13406B603B7A002B74
S11314101BD03B885B007A7A92031343802212022A
S113142013436B623000FFF7B9FF0190002813D01B
S1131430019803B03CBC90469946A246AB46F0BD29
S1131440B97A3000FFF7C0FFDCE73B885B007A7AAB
S1131450920313436B62E5E73000FFF787FF031E37
S11314600190E5D1A04600242033994608339A46DA
S1131470243B9B46444518D06B8B4A46134220D0EC
S11314803000FFF7A7FE7B681B5D5246AB5430006B
S1131490FFF784FF002807D16B8B01345A461342AF
S11314A0E8D01E23019300E00190B37A002BBFD053
S11314B03000FFF78FFE6A68C0239B0213436B6002
S11314C0B6E741230193B3E7FFFFFBFF10B5838B1E
S11314D09BB20522002B01D0100010BD0133837292
S11314E0C372FFF77FFF0200F6E701680722CB69AA
S11314F01A42FCD1704770B5040006683268458B07
S1131500838BED1AADB2838B013B9BB283831301B2
S11315101DD5C37A002B03D0838B9BB2012B10D033
S1131520A38B9BB2002B02D1A37A002B1CD12000E9
S1131530FFF7DBFF236A5D192823F35CDBB22B7012
S113154070BD72688023DB0213437360E8E7C37ADB
S1131550002BE5D0838B9BB2002BE1D172688023F2
S1131560DB0213437360DBE72000FFF7BEFF726802
S1131570C0239B0213437360D9E770B50400056868
S11315806B8B5B0703D51E222523C25470BD468B8B
S1131590838BF61AB6B2838B013B9BB28383FFF72E
S11315A0A4FF236A9E193378DBB22822AB54EDE7FB
S11315B070B58000754BC45825682B681B01DA0F81
S11315C0637E267E1E40638B9BB2002B03D1A38BCC
S11315D09BB2002B23D1638B9BB2002B08D0A38B2F
S11315E09BB2002B04D12533E35C052B00D16DE0C5
S11315F0638B9BB2002B24D0A38B9BB2002B20D0F7
S11316006B8B9B0600D581E0002A04D0A38B9BB290
S1131610012B00D17AE041222523E25411E02B7EF4
S1131620DB0707D501232B766B8B9B072ED5412235
S11316302523E254A38B9BB263832523E35C052B10
S113164038D0638B9BB2002B07D0A38B9BB2002BAB
S113165003D12533E35C052B64D02523E35C052B00
S113166013D02523E35C002B0FD003232B75002319
S11316706383A3832533E35C412B03D0A37A002B3C
S113168000D075E0730700D57BE070BD6B8B5B0702
S1131690D0D518222523E2540023A383A37A002B58
S11316A0C8D02000FFF721FF6A68C0239B021343C0
S11316B06B60BFE71F33E35C002B03D02000FFF710
S11316C01AFFBEE72000FFF758FFBAE71F33E35CB9
S11316D0002B00D08CE703332B7500236383253361
S11316E00022E254A37A002B07D101232B76F307BF
S11316F0A7D5E36820009847A3E72000FFF7F5FE8D
S11317006A68C0239B0213436B60F0E72423E35C05
S1131710002B03D12000FFF730FF92E72000FFF7F2
S1131720EAFE8EE71F33E35C012B96D12B7E9B07E9
S113173001D502232B7603232B75002363832533E2
S11317400022E254B30703D52423E35C012B0BD01E
S1131750F30700D481E72423E35C002B00D07CE76B
S1131760E3682000984778E723692000984774E7E6
S11317702000FFF7BAFE6A68E023DB0213436B60C4
S113178080E76369200098477FE7C046080200208D
S113179010B582B004000E4B1B78002B07D0002933
S11317A005D10B4B5B78834210D01D200CE001A9BE
S11317B00C700D2000F0DAFA0D2000F099FA044BB9
S11317C05C7001221A70002002B010BD0020FBE7FB
S11317D070000020204B984217D0204B984224D010
S11317E01F4B984201D000207047012907D00029DF
S11317F02BD0022905D0032905D00020F4E719488D
S1131800F2E71948F0E71948EEE7012907D0002963
S11318101DD0022905D0032905D00020E4E714488F
S1131820E2E71448E0E71448DEE7012907D000297D
S11318300FD0022905D0032905D00020D4E70F4892
S1131840D2E70F48D0E70F48CEE70F48CCE70F4860
S1131850CAE70F48C8E7C046000C00420010004227
S1131860000800420300050003000600030007000F
S11318700200170003001E0003001F0003001700EE
S11318800300100003001900030004000200160006
S11318900300160030B585B001AA0B4B32CB32C21F
S11318A00300019A82420CD0029A824207D000209F
S11318B0039A9A4201D005B030BD023002E0012003
S11318C000E00020C0B2F6E7E02E00007047000000
S11318D030B50A4B1B78002B0CD1094C094D2560FF
S11318E0094B00221A6065605A60A5609A60013253
S11318F0024B1A708000024BC15030BD72000020B0
S113190074000020CD1800000802002010B582B039
S113191001AC09232370013363700133A370FFF713
S1131920B9FF205602B010BD10B5024B1B68002051
S1131930984710BD7400002010B5024B5B6801206D
S1131940984710BD7400002010B5024B9B6802201C
S1131950984710BD7400002010B5082803D88000F3
S11319601C4B1B589F46002032E01B4B18692FE08C
S11319701A4B1B6A9B059B0F1948D84028E0164B4D
S1131980586925E0144B1B6800209B0720D5134998
S11319901022CB681A42FCD00F4B1A682423134040
S11319A0042B01D00F4813E0002000F0EBF90A4BA0
S11319B09B681B041B0C58430AE05023074AD35C62
S11319C000205B0704D5044BD86801E080200002A6
S11319D010BDC046EC2E000080000020000800402E
S11319E000127A00006CDC0270B50C490B6A0478B2
S11319F0857840780122104080014026B343034398
S1131A002A40D2018020834313430322224012023E
S1131A100348034013430B6270BDC04600080040F6
S1131A20FFFCFFFF082803D88000254B1B589F4666
S1131A30172044E0234A136A02210B431362002057
S1131A403DE0204A936902210B439361002036E074
S1131A501C4A138A02210B43138200202FE0194AE7
S1131A60938A02210B439382002028E016490B68D5
S1131A70022213430B60134B9A8419000E32CB6875
S1131A801A42FCD0104A91680E4BD96252689A628D
S1131A9000229A8419001032CB681A42FCD00A4BF7
S1131AA01B689BB2074A9384002008E0054944223E
S1131AB08B5C022003438B54002000E0002070471D
S1131AC0102F0000000800408000002070B584B092
S1131AD0C222D200204B9A60204A53681E218B43B5
S1131AE0536001236A4613700024E0B2694600F093
S1131AF03DF90134182CF8D103A800240470847033
S1131B0001254570FFF770FF0620FFF78BFF00F0FB
S1131B1029F801956B465C7006261E701C725C7277
S1131B206946052000F030F8052000F085F80C4BDC
S1131B301C725C729C72DC7201956B465C701E7048
S1131B405C721D726946002000F01EF8002000F04F
S1131B5073F804B070BDC046000800400040004166
S1131B6000040040064A936908210B439361012253
S1131B70044B1A7019000B781342FCD17047C0460D
S1131B8000040040000C004070B5060004000D780D
S1131B902D0205434B78002B02D08023DB021D432A
S1131BA04B7A002B02D080231B031D434868012875
S1131BB010D9431E184234D1022830D902230022FE
S1131BC001325B009842FBD8120232431400802396
S1131BD05B031D430B7A002B02D080239B031D4320
S1131BE0134A53785BB2002BFBDBFFF7ABFA114BC4
S1131BF01E700F4A53785BB2002BFBDB0C4B9C60CE
S1131C001A0053785BB2002BFBDB094A536880212E
S1131C1049020B401D435560FFF7B4FA70BD002222
S1131C20D2E70402344380239B021D43D2E7C0461B
S1131C30000C0040080C004010B504000B4A537817
S1131C405BB2002BFBDBFFF77DFA094B1C70074AE4
S1131C5053785BB2002BFBDB044A516880235B02A0
S1131C600B435360FFF78EFA10BDC046000C0040D2
S1131C70040C004070B504001A4A53785BB2002B80
S1131C80FBDBFFF75FFA184B1C70164A53785BB204
S1131C90002BFBDB134E7068C004C00EFFF75CFE24
S1131CA00500114B1C707668F602F60F0F4B1C7082
S1131CB00C4A53785BB2002BFBDB0A4B9C68240272
S1131CC0240CFFF75FFA002E07D1012C07D921005D
S1131CD0280000F0A9FF050001E00134E5402800D8
S1131CE070BDC046000C0040040C0040080C0040CD
S1131CF010B50400FFF726FA054B1C70054A5388FB
S1131D008021C9010B435380FFF73CFA10BDC04644
S1131D10020C0040000C004010B50400FFF712FA5A
S1131D200E4B1C700E4A53881B05180F53880D491F
S1131D300B40538053880C490B4053801100802280
S1131D40D2014B881342FCD105494A880302054855
S1131D50024013434B80FFF715FA10BD020C0040FC
S1131D60000C0040FFF0FFFFFFBFFFFF10B50C7831
S1131D7024020443FFF7D0FFA4B2014B5C8010BDE2
S1131D80000C004010B50400FFF7DCF9054B1C7093
S1131D90054B5C882405240FFFF7F4F92000FFF7B6
S1131DA069FF10BD020C0040000C004030B5D37830
S1131DB0002B35D11378802B29D01B068024640294
S1131DC0234354780225AC4306D19478002C20D1C7
S1131DD08024A402234341605478013C012C1CD983
S1131DE00D042D0CA024E4052C431C4384620D0C2B
S1131DF0D02424062C431C438462D478002C22D1A2
S1131E005B031CD59378012B1ED0416117E000239E
S1131E10D7E7C024E4022343DDE70D4C2340DFE78A
S1131E2041600C04240CA023DB05234383620C0CC7
S1131E30D0231B0623438362D378002B03D153782A
S1131E40013B012B02D930BD8161F8E78160FAE7DB
S1131E50FFFFFBFF10B50A00C1090023002904D1CC
S1131E604309DB0105498C4663441F2420400121BA
S1131E7081401800FFF79AFF10BDC046004400419E
S1131E80704710B5FFF722FEFFF7FAFFFEF706FCD6
S1131E90FFF7F6FF10BD00207047000030B50400C6
S1131EA01720032900D930BD114DAA42FBD8206860
S1131EB0002B10D0802464028C40036B1C42FCD1A4
S1131EC0802424038C4083681C42FCD11C3189008B
S1131ED00A500020E7E7802464008C4083681C4299
S1131EE0FCD11031890041184A600020DBE7C0466C
S1131EF0FFFFFF00002303604C4A42608372C372F9
S1131F00037343720372C3610362436283620375A2
S1131F1043758375C375037643760374437483747E
S1131F20C3742C228354013283540132835401320A
S1131F308354013283540132835401328354013275
S1131F408354013283540132835401328354013265
S1131F508354013283540132835401328354013255
S1131F608354013283540132835401328354013245
S1131F708354013283540132835401328354013235
S1131F808354013283540132835401328354013225
S1131F908354013283540132835401328354013215
S1131FA08354013283540132835401328354013205
S1131FB083540132835401328354013283540132F5
S1131FC083540132835401328354013283540132E5
S1131FD08354413283548365836701328354C365D8
S1131FE0C3670132835403661A3A83501B32835405
S1131FF04366173A8350183283548366143A8350E5
S113200015328354C366113A8350123283540367E2
S11320100E3A83500F32835443670B3A83500121A5
S11320200C328154013283547047C046FFFFFF00D5
S1132030F0B5DE4657464E464546E0B58DB006003F
S11320400C0015000800FFF726FF0300CC490A6ABC
S1132050202002430A6222680438920706D50DB094
S11320603CBC90469946A246AB46F0BD2268012787
S11320701740F4D1C34A053829689142EFD86968FA
S11320809142ECD8E969914200D975E1296A9142FB
S113209000D973E1696A914200D97DE1A96A91424C
S11320A000D97BE12A7C013A504250410206019258
S11320B06A7C012A31D0AA7C012A34D0EA7C012A24
S11320C037D0A122AA5C002A04D0802212010199EF
S11320D0114301912A7A511E8A41920003926A7A2D
S11320E0012A2CD03522AA5C032A00D958E12C21DC
S11320F0695C0F2900D953E1287B0490E87A0590A4
S11321002D208246AA4400200297844606960E009B
S1132110A0465446A946079347E0802292040199B9
S113212011430191C7E78022D2040199114301911F
S1132130C4E780221205019911430191C1E7039973
S113214011430391CEE79202C0252D012A40324368
S11321500D7903262E40324355462A434E797601A3
S1132160602535402A438D792D02C026B6003540BE
S11321702A43CD792D03E026F60135402A43104346
S113218003431F4308AB624608201B189F50042AD0
S113219028D08A7C032A00D902E14E7A0A34042327
S11321A09A46D4440F2E00D9FAE03606F0231B05D4
S11321B01E40210025782D04FF231B041D40AA4640
S11321C063788020002B00D102988F780823002F99
S11321D000D1029BCF78BB4610275D46002DB2D1BB
S11321E0029FB0E7069E44464D46079B4846503042
S11321F049464131002280277F02BC460127B94667
S11322000227FF37BA461F001300A0463C0007E030
S1132210574697403B43013201300231082A0ED021
S11322200778002F02D0674697403B430F78002F72
S1132230F1D0022FECD04F4697403B43EBE722000E
S11322404446984613006A7E120130211140287ECC
S11322500722024011430022802040020F0002E0C6
S11322600132042A07D0A918097D0029F8D00100F9
S113227091400F43F4E7BA46321D30003430002158
S113228002C29042FCD100227263B2639B003E4AB8
S11322909E503460A023EA5C643BF25409A9AB7AF3
S11322A00B701120FFF762FD1120FFF721FD2F00B5
S11322B098372E00583678239946A944773B9B4695
S11322C023004C46994603E001370436B44212D049
S11322D03B78002BF8D008AB5A469A700022DA708B
S11322E02022B21812781A705A465A70307819009F
S11322F0FFF7B0FDE8E74C46049B1B03059A120266
S11323001343019A134323600422A3681A42FCD1A5
S1132310FF2323710422A3681A42FCD16B461B7B62
S113232063710A9BE3600B9B23614346A361174AD5
S1132330A3681342FCD15346E3631022A3681A42F4
S1132340FCD12B686363124AA3681342FCD16B6807
S113235023641C3500210F4802008A40A3681A42F6
S1132360FCD104CD0B0010339B00E3185A600131FB
S11323700429F1D1002072E6172070E617206EE6DA
S113238000040040FFFFFF00140200204000020090
S11323908000040000010800172060E617205EE6B4
S11323A017205CE610B53C23C35CFFF777FD10BD36
S11323B0F0B5C64600B580000E4BC7583B68DE6AD0
S11323C0BB6B7A6B13401E4000240B4B984602E013
S11323D00434302C0AD04346E5583542F8D03B1932
S11323E05B68380098473B68DD62F1E704BC9046BF
S11323F0F0BDC04614020020342F000010B50020A8
S1132400FFF7D6FF10BD931C9B001950022A09D078
S1132410032A0CD0012393401A00037E134303764E
S113242000207047037E102213430376F8E7037EEF
S1132430202213430376F3E770B58000164BC4588B
S113244023689D7B227E637E13401D40EB0706D4E8
S1132450AB070BD4EB0610D4AB0615D470BD20002B
S1132460A3689847012322689373F1E72000E36887
S11324709847022322689373ECE720002369984766
S1132480102322689373E7E7200063699847236861
S113249020229A73E2E7C0461802002010B50020FB
S11324A0FFF7CAFF10BD10B50120FFF7C5FF10BD2F
S11324B0064B984208D0064A0023904201D01800E7
S11324C070470133DBB2FAE70023FBE70018004250
S11324D0001C0042F0B585B004000D001600080091
S11324E0FFF7E6FF070003AB12221A705A7002AB23
S11324F02E321A8040325A800023A360E3602361A5
S11325006361237663768200784BD4502560B37878
S1132510082B06D023712B880520DB0705D505B0D1
S1132520F0BD1720FA07FAD4F4E7EB7B1730DB068B
S1132530F5D42B889B07F2D4337C002B00D07AE0AF
S1132540337F002B00D082E06949086A7A0002AB2D
S1132550D35A03430B62B378082B00D187E0337856
S11325606A46137003ABDF5D69463800FFF7FEFB74
S11325703800FFF7BDFB3189B3880B43B178B279DA
S1132580114319437378002B02D080231B01194394
S11325902268D37B5BB2002BFBDB2980717B4B1E53
S11325A099418900B37B002B01D001231943226890
S11325B0D37B5BB2002BFBDBFF232B71002905D0FF
S11325C02268D37B5BB2002BFBDB6971B17AF37AAF
S11325D0002B01D010231943337B002B01D020237F
S11325E019432268D37B5BB2002BFBDBA971226801
S11325F0D37B5BB2002BFBDB2379042B3FD0082B6E
S11326005ED01720002B00D089E7D37B5BB2002B70
S1132610FBDB338D2B822268D37B5BB2002BFBDB8D
S1132620738D2B832268D37B5BB2002BFBDBB38DD2
S11326306B83002073E701A901238B700022CA7009
S1132640327E0A704B70307DFFF704FC78E701A9F5
S113265001238B700022CA702432B21812780A70D7
S11326604B701F33F3181878FFF7F4FB6CE7086A14
S11326707A1C520002ABD35A03430B626FE7D37B3D
S11326805BB2002BFBDB2823F35C2B742268D37B27
S11326905BB2002BFBDB2923F35C2B752268D37B15
S11326A05BB2002BFBDB2A23F35C2B762268D37B03
S11326B05BB2002BFBDB2B23F35C6B7600202EE755
S11326C0D37B5BB2002BFBDBB36A2B612268D37B29
S11326D05BB2002BFBDBF36AAB612268D37B5BB29A
S11326E0002BFBDB336BEB61002018E718020020A2
S11326F00004004010B50468E37B5BB2002BFBDBF5
S11327000379042B05D0082B14D01720002B08D0F4
S113271010BD17200129FBD8D2B261180A76002017
S1132720F6E717200129F3D892B20C3149000A5375
S11327300020EDE717200129EAD8063189000A5163
S11327400020E5E7FEE70000F8B52A4A2A4B9A4242
S113275011D01A00294B9A420DD2294A03339B1AED
S11327609B0801339B000022234822498C58845043
S113277004329A42FAD1234A234B9A420AD2D343CF
S113278021495B1803218B4304339B18002102C2A7
S11327909342FCD11D4AFF211D4B8B439360FD39AD
S11327A090235B001B4AD1501B4AD3780325AB43CB
S11327B002242343D370D3780C27BB430826334326
S11327C0D370164B987B3022904320221043987389
S11327D0997BB943314399739A7BAA4322439A73F1
S11327E00F4A536880210B43536000F0A9FA00F0AC
S11327F013FAFEE7D02F0000000000202000002084
S113280004000020200000204802002000ED00E029
S113281000000000007000410050004100480041E9
S11328200040004130B583B001AA094B1B881380D6
S1132830084B5A6031221A802F3A5A801D00064CE8
S113284029002000FEF742FE0028F9D103B030BD74
S1132850642F0000140000202002002030B583B053
S113286001AA094B9B881380084B5A6031221A80B5
S11328702F3A5A801D00064C29002000FEF726FE40
S11328800028F9D103B030BD642F000014000020EB
S11328902002002030B583B001AA04231370002362
S11328A05370084B5A6031221A802F3A5A801D0007
S11328B0054C29002000FEF709FE0028F9D103B0D9
S11328C030BDC046140000202002002030B585B081
S11328D003AA1E4B198B1180988B02A90880188CAF
S11328E001A908809B8C69460B80194B3121198002
S11328F02F3959805A601D00164C29002000FEF71C
S1132900E5FD0028F9D102AA114B5A601D00114CB3
S113291029002000FEF7DAFD0028F9D101AA0C4BAA
S11329205A601D000B4C29002000FEF7CFFD002843
S1132930F9D1074B6A465A601D00064C2900200055
S1132940FEF7C4FD0028F9D105B030BD642F0000A6
S1132950140000202002002030B585B003AA1E4BCD
S1132960198D1180988D02A90880188E01A90880FC
S11329709B8E69460B80194B312119802F39598060
S11329805A601D00164C29002000FEF79FFD002808
S1132990F9D102AA114B5A601D00114C29002000E4
S11329A0FEF794FD0028F9D10C4B6A465A601D00CD
S11329B00B4C29002000FEF789FD0028F9D101AA5B
S11329C0064B5A601D00064C29002000FEF77EFDD0
S11329D00028F9D105B030BD642F00001400002098
S11329E02002002030B583B001AA104B198F11804A
S11329F09B8F69460B800E4B312119802F395980EA
S1132A005A601D000B4C29002000FEF75FFD0028D2
S1132A10F9D1074B6A465A601D00064C2900200074
S1132A20FEF754FD0028F9D103B030BD642F000037
S1132A30140000202002002030B583B001AA114BFD
S1132A40198F118040215B5A69460B800E4B31214E
S1132A5019802F3959805A601D000C4C2900200020
S1132A60FEF734FD0028F9D1074B6A465A601D0071
S1132A70064C29002000FEF729FD0028F9D103B0F7
S1132A8030BDC046642F0000140000202002002046
S1132A9030B583B001AA114B198F118044215B5AC0
S1132AA069460B800E4B312119802F3959805A60A9
S1132AB01D000C4C29002000FEF708FD0028F9D168
S1132AC0074B6A465A601D00064C29002000FEF799
S1132AD0FDFC0028F9D103B030BDC046642F0000CE
S1132AE0140000202002002030B585B003AA1F4B3B
S1132AF0198F11804421585A02A908804821585A34
S1132B0001A908809B8D69460B80194B31211980DE
S1132B102F3959805A601D00164C29002000FEF7F9
S1132B20D5FC0028F9D102AA114B5A601D00114CA2
S1132B3029002000FEF7CAFC0028F9D101AA0C4B99
S1132B405A601D000B4C29002000FEF7BFFC002832
S1132B50F9D1074B6A465A601D00064C2900200033
S1132B60FEF7B4FC0028F9D105B030BD642F000095
S1132B70140000202002002030B58FB001AA642385
S1132B800193204B536000239360137313768021C9
S1132B9089031161012149429182D3611362253174
S1132BA053549362083153540131535401315354F3
S1132BB0D7331386144BD382144C15492000FEF7E7
S1132BC00FFB24680722E3691A42FCD1236802221E
S1132BD0134323600D4D2868FEF798FE1F23184009
S1132BE01E3B83400B4A1360E88800231021628B4C
S1132BF00A4204D101338342F9D3102363830FB013
S1132C0030BDC046480D00001027000020020020FF
S1132C100010004200E100E010B5FEF71BFAFEF7D9
S1132C208BFAFEF787F8FAE7002243088B4274D345
S1132C3003098B425FD3030A8B4244D3030B8B42B9
S1132C4028D3030C8B420DD3FF22090212BA030CC2
S1132C508B4202D31212090265D0030B8B4219D3A3
S1132C6000E0090AC30B8B4201D3CB03C01A5241C3
S1132C70830B8B4201D38B03C01A5241430B8B420B
S1132C8001D34B03C01A5241030B8B4201D30B03F4
S1132C90C01A5241C30A8B4201D3CB02C01A52411B
S1132CA0830A8B4201D38B02C01A5241430A8B42DE
S1132CB001D34B02C01A5241030A8B4201D30B02C7
S1132CC0C01A5241CDD2C3098B4201D3CB01C01AE1
S1132CD0524183098B4201D38B01C01A52414309EB
S1132CE08B4201D34B01C01A524103098B4201D3D9
S1132CF00B01C01A5241C3088B4201D3CB00C01A46
S1132D00524183088B4201D38B00C01A52414308BD
S1132D108B4201D34B00C01A5241411A00D20146E2
S1132D20524110467047FFE701B5002000F006F855
S1132D3002BDC0460029F7D076E770477047C04609
S1132D4070B500260C4D0D4C641BA410A64209D18D
S1132D50002600F02DF90A4D0A4C641BA410A6426B
S1132D6005D170BDB300EB5898470136EEE7B300C8
S1132D70EB5898470136F2E7BC2F0000BC2F000047
S1132D80BC2F0000C02F0000002310B59A4200D1D0
S1132D9010BDCC5CC4540133F8E700009C03000070
S1132DA0D4050000D4050000D4050000D4050000BB
S1132DB0D4050000D4050000D4050000D4050000AB
S1132DC0D4050000D4050000D4050000D40500009B
S1132DD0D4050000D4050000D405000084030000DD
S1132DE0D4050000D4050000D4050000D40500007B
S1132DF0D4050000D4050000D4050000D40500006B
S1132E00D4050000D4050000D4050000D40500005A
S1132E10D4050000D4050000D4050000940300008C
S1132E20D4050000D4050000D4050000D40500003A
S1132E30D4050000D4050000D4050000D40500002A
S1132E40D4050000D4050000D4050000D40500001A
S1132E50D4050000D4050000D40500008C03000054
S1132E60A40300006C0300007C0300007403000052
S1132E700200000003000000040000000500000040
S1132E8006000000070000000E0000000F00000014
S1132E900A0000000B000000FFFF0000FFFF00001D
S1132EA0FFFF0000FFFF0000FFFF0000FFFF000026
S1132EB0FFFF0000FFFF0000FFFF0000FFFF000016
S1132EC076080000800800008A08000094080000CA
S1132ED09E080000B0080000C20800000D0E0000AB
S1132EE000080042000C0042001000426A19000071
S1132EF06619000066190000CC190000CC19000006
S1132F007E1900007019000084190000BA1900002D
S1132F10501A0000301A0000301A0000BC1A0000D9
S1132F20421A00005E1A0000341A00006C1A0000F5
S1132F30AC1A0000010000000200000004000000C0
S1132F400800000000100000002000000040000005
S1132F5000800000000001000000020000000400E6
S1132F600000080004040000040100000410000034
S1132F700405000004140000041500000408000007
S1132F800125000005EF0000021C000004020000FF
S1132F900182000002320000060500000420000047
S1132FA008030000080900000815000002190000C9
S1132FB0F8B5C046F8BC08BC9E467047B500000092
S1132FC0F8B5C046F8BC08BC9E4670478D000000AA
S1132FD02C0100000A000000FF000000B80B0000F4
S1132FE001000000310002000000000000000000A9
S90327498C
