S01400006D6963726F5F6E6565646C652E737265632A
S113000040060020212200001F2200001F220000C1
S113001000000000000000000000000000000000DC
S11300200000000000000000000000001F2200008B
S113003000000000000000001F2200001F2200003A
S11300401F2200001F2200001F2200001F220000A8
S1130050390500001F2200001F2200001F2200009B
S11300601F2200009D150000AD150000BD15000005
S1130070E91E0000751F00007F1F00001F22000002
S11300801F2200001F2200001F22000010B5064C92
S11300902378002B07D1054B002B02D0044800E045
S11300A000BF0123237010BD1800002000000000D1
S11300B04C290000084B10B5002B03D00749084811
S11300C000E000BF07480368002B00D110BD064BB9
S11300D0002BFBD09847F9E7000000001C0000202B
S11300E04C2900004C29000000000000037E012080
S11300F0DBB218400222590700D51043134201D045
S1130100042318437047000010B58CB0684600F013
S113011065F80C4C6A460C49200000F081F823680D
S11301205A7E52B2002AFBDB0F229A751A7619788E
S11301300D3A0A431A702268537E5BB2002BFBDB34
S11301400CB010BD900000200020004270B5134C8C
S113015023685A7E52B2002AFBDB0222197B0A432F
S11301601A735A7E52B2002AFBDB01252068FFF77E
S1130170BDFF2842FAD02068437E5BB2002BFBDB34
S1130180428B074B1A8001230376FFF7AFFF430727
S113019002D5022223681A7670BDC0469000002062
S11301A08C00002030B597B002AD040050220A49FB
S11301B0280002F055FB092C0BD80023A400605939
S11301C001A94B70CB708B70C0B201330B7001F07E
S11301D04DFC17B030BDC04674280000C022520147
S11301E0C281020000232A320370437043800371EA
S11301F003760362C361836003730374437483747B
S1130200C37403751370421D43758375D377C38418
S11302100385C37526322C301370037070470000B9
S11302208023F0B51400AB4A01600700106A5B003C
S1130230034313620B7887B00520DB0700D5E5E0A4
S11302400B7817309B0700D5E0E063783B71002BF7
S113025004D1A14A0433116C0B431364237805A918
S113026013200B703D6801F09FFB132001F060FB2D
S113027023002C3302931B78227B0192002B33D072
S113028022002B321678019A9619F6B29B19DBB22A
S11302900393019BF01A039BC0B2B3421BD8E089BD
S11302A0FFF780FF637D9B00DBB22B70A37D627838
S11302B0DB011343DBB26B702379302B00D1B2E046
S11302C016D8102B00D1ABE0202B00D1ABE0002BD3
S11302D018D11A00A5E00F231840237B0136C0185B
S11302E0FFF760FFF6B2D4E70198FFF75BFFD6E7AC
S11302F0322B09D000D298E0332B00D18CE0342B80
S113030000D185E0172081E004221023022170200F
S1130310090101400A43AA70E27D3F2AF2D8EA703B
S113032039684A7E52B2002AFBDB6188E27C0A43C8
S1130330611DC87FC0000243207D80000243A07C71
S1130340400002431A43AA80227E9446002A07D022
S1130350102B00D1AFE000D969E0002B00D19BE065
S11303603868437E5BB2002BFBDB63462B723A6832
S1130370537E5BB2002BFBDBA38BAB833A68537ECB
S11303805BB2002BFBDB238C2B84029B1A78002AA4
S113039003D0013AD2B20F2AB4D823002B331878F1
S11303A00F28AFD83E68737E5BB2002BFBDB267B45
S11303B0E38900053343A66812043343034313431C
S11303C02B6123002A331B782B750F23AB75CB7F4E
S11303D0002B0CD0E38C41498B4293D8AB8480230F
S11303E0228D1B01D3189BB28B428BD8EA84E02266
S11303F03B4B00201968D2004B0119001A40394BBD
S11304001B68DB0E0B43DBB213432B8507B0F0BD37
S1130410617C227C10237AE706221023012176E7EF
S11304200822002173E70022FBE70222F5E7202BD4
S113043018D0302B00D093E7E37CE069002B09D07F
S113044003008033FF2B00D95CE7236A8033FF2B42
S113045000D957E7FF2800DD54E7236AFF2B00DDAE
S113046050E77DE7E07CE6691F4B00280CD0802034
S113047080003018984200D944E78022206A920014
S11304801018984200D93DE79E4200DD3AE7226AFF
S11304909A4200DD36E763E7E07CE6690F4B00280B
S11304A0F2D080221201B018984200D92AE78020A5
S11304B0226A0001E4E7E07CE6690C4B0028E3D003
S11304C080221202B018984200D91BE78020226AC9
S11304D00002D5E70004004000080040FF0F0000C0
S11304E02460800020608000FF030000FFFF000004
S11304F010B51723002A06D1064B8900CC58002CCE
S113050003D1C8502300180010BD13008442FAD050
S11305101D23F8E79C0000201723002906D11F287B
S113052006D8163B8340034AD3600B00180070477B
S1130530C960FFDE00180040002370B501250B4C94
S1130540237023780F2B00D970BD29009940084AE5
S11305501069084206D01161064A9B009B58002B83
S113056000D09847237801332370EAE798000020ED
S1130570001800409C000020014B5878C0097047C7
S113058000180040022310B5044A11780B4313707D
S1130590FFF7F2FF0028FBD110BDC0460018004051
S11305A0402307B5104A052091690B43936100234A
S11305B001A90B7001F0F8F9052001F0B9F9012344
S11305C00A4A11780B431370FFF7D6FF0028FBD1BA
S11305D00200074B1A5004304028FBD11022054B6F
S11305E01A60FFF7CFFF07BD000400400018004069
S11305F09C00002000E100E000230122036043602E
S11306008372023302724272C3727047F7B50C00F0
S11306100026237901A94E70CE700B70237A050051
S113062020788B7001F022FA33001F2D00D8114B73
S11306300721A27A29408900E67A002A01D00822FB
S113064016430F278E408F403100EA0892009A1813
S11306509069B84301439161617A0122002904D071
S1130660AA4059690A435A61F7BDAA40596991439E
S11306705961F9E700180040144B1549186A154AE6
S1130680154B000418D40120087019680139196049
S11306901168013911601168002904DC01200F4937
S11306A0087000211160002019680D4A81420ADC9B
S11306B01070186001307047002008700A2119601A
S11306C02331FF31E6E701231370F4E700440041CE
S11306D03400002000000020040000203600002028
S11306E03500002010B50A1E0A4C00D00A4A010049
S11306F0200001F0D3FB04211F20226893680B42E1
S1130700FCD15379834302D0602BF7D110BD602311
S11307105371FBE7DC000020FF0F0000002110B53F
S11307200800FFF7DFFF00210220FFF7DBFF0021B5
S11307300120FFF7D7FF00210320FFF7D3FF10BDEF
S113074010B5062809D8012101F0D0FF040E1408C1
S11307500A1016000020FFF7C5FF10BD0320FAE7BA
S11307600020FFF7BFFF01210800F4E70020FFF796
S1130770B9FF01210220EEE70220F2E770B51C4C1C
S11307801C49200001F0BCF905211B4BA1676360E3
S1130790E1650023E1672100E36163622362A362F0
S11307A09931013304220B7008212166A118CA670C
S11307B021009A310B700921616621000831CA6752
S11307C0A2652000220002250C4E98309B32037053
S11307D01370084922003000257601F003FA3368CB
S11307E09A682A42FCD11A6815431D6070BDC04640
S11307F03801002000140042FF0F0000DC0000203C
S113080010B5084B1A78012A02D0062A04D010BD6C
S11308100020FFF795FFFAE700221A70FFF77EFF2A
S1130820F5E7C04637000020A02100B58FB001AA2B
S1130830C90091802D210023552069441385087037
S11308402E21403869445385087040211370138168
S113085053709372D3721373937353731377136236
S11308605362938504339370917193613639033BDA
S1130870516113740249034801F098FB0FB000BDA5
S1130880001C0042DC01002010B5094B1B68DA7B18
S113089052B2002AFBDB022219880A431A80402242
S11308A0044B9A61044B3F3A1A7001F0F9FD10BDF4
S11308B0DC01002000440041390000200021FF2217
S11308C00D4B10B519700D4B0D4C1A700D4BEA3AC7
S11308D02000197001F07EFC2368DA7B52B2002AF2
S11308E0FBDB3B2202211A739A731A888A431A800B
S11308F04022054B5A6110BD3A0000200800002038
S1130900DC010020390000200044004110B5164BE2
S11309101B78002B0AD0154B1B78022B07D12222FF
S11309200021134801F056FC01F0E6FD10BD032B35
S113093007D14D2200210E4801F04CFC01F008FEC5
S1130940F4E7042B0AD101220A4B00211A7008484B
S11309504C3201F03FFC01F027FEE7E7042BE5D918
S1130960FFF7ACFFE2E7C046390000200800002092
S1130970DC0100203A000020084B1B78002B08D033
S1130980074B084A18784021002803D051610022FF
S11309901A707047012018709161FAE73A0000203C
S11309A0380000200044004110B5FFF787FFFFF72F
S11309B0B5FE0022014B1A7010BDC046370000205E
S11309C070B5FFF759FE264D002807D0254C237833
S11309D0002B1DD0FFF7E8FF00232370224B1B7868
S11309E0002B04D00023214A1370214A13702B7862
S11309F0002B0CD01F4B1B78002B01D0FFF7D4FF2A
S1130A001D4B1A781D4B002A27D101321A7070BD74
S1130A10164B1A78002AE1D115490A78002ADDD14B
S1130A202A78002ADAD101321A700A70144A154C55
S1130A30137801331370237801332370FFF7E0FE3A
S1130A400C4B1B78002B05D12378012B02D1FFF727
S1130A501BFFC3E7FFF75AFFC0E70022D6E7C046F3
S1130A60F90100203600002035000020400000205D
S1130A703F00002039000020FA0100203C00002043
S1130A80370000200800002030B50F4B1B78002BE6
S1130A900BD10E4A0E4D14880E480F490F4AAC4232
S1130AA004D801240B700470137030BD0C4DAC429B
S1130AB003D8037001200870F6E70A4D03700B7029
S1130AC0AC42F1D90123EFE7390000208C0000206B
S1130AD07A0C00003E0000203D0000203B00002076
S1130AE02C0D00008E0E000010B5084B1A78002A59
S1130AF00BD000221A7001F023FC0423044A11696C
S1130B000B431361BFF34F8F30BF10BD4100002072
S1130B1000ED00E010B50E4B1A78002A05D0002233
S1130B201A7000F0A9F9FFF74BFF0A4B1A78002A54
S1130B3007D000221A70FFF71FFFFFF707FBFFF72C
S1130B40A3FF054B1B78002B01D0FFF7CDFF10BD91
S1130B504300002044000020410000201F490B688E
S1130B605A1C0A601E4B092A07DD1A6801321A60F2
S1130B7000220A6001211B4A117019681A4A0429CB
S1130B8007DD11680131116000211960174B013133
S1130B9019701168164B012907DD196801311960B4
S1130BA000211160134A013111701A681249012A97
S1130BB007DD124802680132026000221A60012334
S1130BC00B700B78002B08D00D4A136801331360A7
S1130BD05A2B02DD01220B4B1A707047540000207F
S1130BE050000020430000205C000020450000204D
S1130BF04C00002042000020440000205800002047
S1130C0048000020410000207047F7B50026022765
S1130C10012501AC21001B202670A670677000F02E
S1130C2063F9210006202570677000F05DF921004A
S1130C3007202570657000F057F921000F202670F9
S1130C40657000F051F921000B202670677000F0E8
S1130C504BF9210003202570677000F045F9380036
S1130C6021002670677000F03FF9210010202570E4
S1130C7000F03AF921000E202670657000F034F976
S1130C80F7BD0000002310B58EB001AA13851370C0
S1130C909371138153709372D37213739373537359
S1130CA053619361137713625362538593850433BD
S1130CB09370A023DB0093802D236F216B44197064
S1130CC00123084C13740849200001F06FF92368CC
S1130CD0DA7B52B2002AFBDB022219880A431A800B
S1130CE00EB010BD1C0100200018004210B50C4CC1
S1130CF000220C49200001F0FCF8206801F044F9BE
S1130D00094B1A5C1F231A401E3B19009140074AE5
S1130D101160627E1A4362762268537310BDC04626
S1130D201C0100205D0B0000C428000000E100E06D
S1130D301FB501AC2000FFF75FFC0F2301930023D4
S1130D40012063602100033360722072E372FFF7B5
S1130D505DFC1FBD10B5002201210448FFF7C8FB4C
S1130D6000210120FFF7D8FB10BDC046090C00008C
S1130D704023024A91690B43936170470004004089
S1130D804022074B5A6192189A61802212025A61DA
S1130D90802212015A6108229A61043A5A6170470A
S1130DA00044004110B500F076FE01220D4B1A708C
S1130DB0BFF35F8F62B6FFF728FFFFF7E1FF01F093
S1130DC03DFCFFF75FFFFFF791FFFFF7D7FCFFF74D
S1130DD09BF9FFF729FDFFF7CBFFFFF7A9FFFFF70B
S1130DE0B9FF10BD090000200121064B06481A6A0C
S1130DF0D20E0A4002701B6A044ADB0A0B401370CD
S1130E007047C04600440041F9010020FB01002066
S1130E1010B5134B1B78002B08D0FFF7C5FD114B01
S1130E201B78002B18D101F0A7FA10BD0E4B1B78CC
S1130E30002BFAD10D4B1B78002B02D001F0E6FAFF
S1130E40F3E70B4B1B78002B02D001F05DFAECE7C3
S1130E50084B1B78002BE8D001F03CFAE5E7C046CC
S1130E60F9010020FB010020390000203E00002091
S1130E703D0000203B00002010B5FFF7B5FFFFF751
S1130E80C7FF10BD094B196800290BD1EFF310807F
S1130E90074A002805D172B6BFF35F8F0549087071
S1130EA0012111701A6801321A6070476000002035
S1130EB06400002009000020084B1A68013A1A60F7
S1130EC01B68002B09D1064B1B78002B05D001228F
S1130ED0044B1A70BFF35F8F62B670476000002046
S1130EE0640000200900002007B5802201AB1A70BD
S1130EF00A785A704A789A708A781900DA7000F081
S1130F00B5FD07BD07230168CA691A42FCD17047C1
S1130F10F0B5050085B02960080014000E0000F04B
S1130F20F7FA0127831C9F403B005C4A0E30116A8C
S1130F30C7B20B431362237B02AA1100380013705B
S1130F4000F032FD380000F0F3FC207B002100F0BB
S1130F5067FA33681C209B0700D59DE001223368A3
S1130F6017381A40009200D096E0286800F0D0FAB2
S1130F7007004B4900F0EAFA4A4BBF00FD506B46AC
S1130F801B786A462B766B461B7812786B766B4619
S1130F901B886B836B461B88AB83AB1DDA77009B86
S1130FA02B62142333602F6803AE380000F0B0FACC
S1130FB0802333706B461B78019073700123B370E8
S1130FC06B461B78E069F370236A0093002803D111
S1130FD00100380000F042FA02233070000CC0B265
S1130FE03100737000F042FD009B002B04D10121FD
S1130FF0380000F033FA00906B461B7831003370F0
S113100002237370009B180CC0B200F02FFDA38A5A
S1131010EB80E38A2B81227E8023002A06D1224B97
S113102002329B7813405A1E9341DB01A168226966
S11310300A431343621DD27F002A02D08022D205C4
S11310401343A26A134322002C321278002A03D1DC
S113105080229204914202D180221205134322007D
S11310602D321278002A02D08022120413432E3427
S11310702278002A02D08022D20313433A680198CE
S113108013433B6080230E305B007B60C0B200F0F2
S113109097FC23230020FB6005B0F0BD0004004052
S11310A0A1120000FC01002000200041022203687C
S11310B0197E114206D01A765B8B412013420AD165
S11310C0002008E05A8B5207FAD5C022182059682C
S11310D092020A435A60704770B500220126022426
S11310E001680B7E334002D10D7E254201D00020E1
S11310F005E00132038992B29342F2D8122070BD06
S1131100802310B50468DB02626813436360616284
S1131110FFF7E2FF0123237610BD0000F7B50F00AF
S11311204B88050001930468FFF7ECFE7B7A002BE3
S113113003D0B97A2800FFF7E3FF6368244A134019
S113114063607A7A3B88397A5B00920313430029FF
S113115002D080221202134363622800FFF7BCFF0F
S1131160061E15D12800FFF7A1FF061E10D100901E
S1131170009B019A93420DD10026AB7A002B07D035
S11311802800FFF7BFFEC02362689B02134363601D
S11311903000FEBD2022638B134216D02800FFF7D7
S11311A0B1FE7B68009A28009A5C230028331A70E9
S11311B0FFF792FF061EE0D1009A638B0132009282
S11311C004221342D4D01E26D7E74126E0E7C046C6
S11311D0FFFFFBFF10B5828B03000520002A05D119
S11311E001329A72DA721800FFF798FF10BD0723D4
S11311F00168CA691A42FCD1704770B505680400D9
S11312002A68468B838BF61A838BB6B2013B9BB25A
S11312108383C37A12010AD5002B0DD0838B012B53
S11312200AD180236A68DB0213436B6004E0002B5D
S113123002D0838B002BF4D0A38B002B0AD1A37A8A
S1131240002B07D02000FFF7D2FFC0236A689B025F
S113125013436B602000FFF7CAFF236A28359E19E9
S11312602B78DBB2337070BD70B506680400738BE5
S11312705B0703D51E230634E37770BD458B838B50
S11312802836ED1A838BADB2013B9BB28383FFF703
S1131290AEFF236A5D192B78DBB23370EDE70000F3
S11312A0F8B55E4B8000C4582568A61D2B68627E85
S11312B0277E1B011740628BDB0F002A2ED1A28BE5
S11312C0002A2BD001232A7E1A4206D002222B7632
S11312D06B8B134010D04123F377A38B9BB26383B2
S11312E0F37F052B3CD1631DDB7F2000002B00D056
S11312F08AE0FFF7B9FF33E06A8B5207EDD5182275
S1131300F277A383A37A002BE7D02000FFF76FFFC7
S1131310C0236A689B0213436B60DEE7628B002A7A
S11313205FD0A28B002A5CD1F27F052A59D1621DBD
S1131330D27FD2B2002A54D103232B756283F27771
S1131340A37A002B4AD02000FFF751FFC0236A681C
S11313509B0213436B60FB0702D5E36820009847A8
S1131360638B002B1BD0A38B002B18D1F37F052B91
S113137015D1631DDA7F012A11D1297E0132114270
S113138000D02A7603222A7500226283F277BA07F4
S11313903DD5DA7F012A3AD1236920009847F37FAB
S11313A0052B1AD0F37F002B17D003232B750023B2
S11313B06383A383F37F412B0AD0A37A002B07D046
S11313C02000FFF714FFE0236A68DB0213436B601D
S11313D07B0702D5636920009847F8BD01232B766B
S11313E0B9E7628B002ABBD0A28B002AB8D06A8BE3
S11313F0920600D577E7002B03D0A38B012B00D1F5
S113140071E74123F377ABE7FFF7F7FEA8E7FA07A5
S1131410C5D5DB7F002BC2D1E368BEE7FC01002009
S113142037B50D4C05002378002B01D000290CD0D2
S113143001A90D200D7000F0B7FA0D2000F078FA24
S113144001230020657023703EBD63780800AB4221
S1131450FAD01D20F8E7C046650000201D4A0300AD
S113146000B50800934213D01B4A93421DD01B4A77
S1131470934227D10023032904D801F037F9250228
S11314800507174B180000BD164BFBE7164BF9E791
S113149000230329F6D801F029F919020406134B95
S11314A0F0E7134BEEE7134BECE700230329E9D8ED
S11314B001F01CF90E0204060F4BE3E70F4BE1E7C2
S11314C00F4BDFE70023DDE70E4BDBE70E4BD9E7DD
S11314D00E4BD7E7000C0042001000420008004207
S11314E003000500030006000300070002001700C4
S11314F003001E0003001F00030017000300100078
S11315000300190003000400020016000300160083
S11315107FB50C4B0100180001AA70C870C2019A73
S11315208A420AD05A688A4209D09B6800208B42BA
S113153001D10230C0B204B070BD0020FAE701202E
S1131540F8E7C046C82800007047000070B5094E8F
S1131550094B3278002A09D1084C094D2260626097
S1131560A26001321D605D609D6032708000195080
S113157070BDC0466700002068000020FC01002008
S113158049150000092313B501AC237001336370BE
S11315900133A370FFF7BCFF205616BD10B5024BF4
S11315A000201B68984710BD6800002010B5024B4E
S11315B001205B68984710BD6800002010B5024BFD
S11315C002209B68984710BD680000201023024940
S11315D0CA681A42FCD070470008004070B5082859
S11315E006D801F083F80805053030120B152800E1
S11315F00024200070BD164B1C69FAE7154B164CED
S11316001B6A9B059B0FDC40F3E7114B5C69F0E719
S11316100F4D00242B689B07EBD5FFF7D7FF24223F
S11316202B681340042B11D1200000F0C9F9AC68D9
S1131630A4B24443DDE7094B00241B785B07D8D5EB
S1131640034BDC68D5E780242402D2E7044CD0E7BE
S1131650740000200008004000127A005008004086
S1131660006CDC0270B5847802784578012040264D
S11316700540204080240849AD010B6AC001B343F2
S11316802B43A343034303200240044812020340B4
S113169013430B6270BDC04600080040FFFCFFFF0F
S11316A070B5082806D801F021F81405050C0E1AA7
S11316B007203500172070BD0223194A116A0B4315
S11316C013620020F7E70223154A91690B439361E3
S11316D0F7E70223124A118A0B431382F1E702232C
S11316E00F4A918A0B439382EBE7022200240D4EAA
S11316F00B4D336813433360AA84FFF767FFB36865
S1131700EB627368AB62AC84FFF760FF33689BB233
S1131710AB84D6E70223044A11780B431370D0E755
S1131720000800407400002044080040C2221E212A
S1131730F0B5204BD2009A601F4A0025536885B04B
S11317408B435360012301AC2370E8B221000135BF
S113175000F02AF9182DF8D100256B46012606273A
S113176068461D709D705E70FFF77CFF0620FFF7D2
S113177097FF00F02BF82100052066606570277044
S11317802572657200F032F8052000F07DF80B4BED
S113179021001D7228005D729D72DD7266606570A5
S11317A027706572267200F021F8280000F06CF8AA
S11317B005B0F0BD000800400040004100040040B6
S11317C0014B5878C0097047000C00400823054AB3
S11317D091690B4393610123034A137011781942F1
S11317E0FCD1704700040040000C004070B50C7838
S11317F04B782402060005000443002B02D080230A
S1131800DB021C434B7A002B02D080231B031C43B6
S11318104B68012B12D95D1E1D400222002D06D0FB
S11318201D02802335439B0207E0013552009A4292
S1131830FBD380232D0235435B031C430B7A002B1F
S113184002D080239B031C43FFF7BAFF0028FBD17F
S1131850FFF718FB0A4B1E70FFF7B2FF0028FBD1FD
S1131860084B9D601D00FFF7ABFF0028FBD18022D1
S11318706B68520213401C436C60FFF71DFB70BD84
S1131880080C0040000C004010B50400FFF798FF5E
S11318900028FBD1FFF7F6FA074B1C70FFF790FF07
S11318A00028FBD18023054A5B0251680B43536037
S11318B0FFF702FB10BDC046040C0040000C0040C2
S11318C0F8B50700FFF77CFF0028FBD1154EFFF7A2
S11318D0D9FA3770FFF774FF0028FBD1124C606807
S11318E0C004C00EFFF77AFE0500377066680F4B20
S11318F0F602F60F1F70FFF763FF0028FBD1A46800
S11319002402240CFFF7D8FA002E08D1012C04D9A4
S11319102800210000F0F4FE05002800F8BD013481
S1131920E540FAE7040C0040000C0040080C0040BD
S113193010B50400FFF7A6FA054B064A1C70802375
S11319405188DB010B435380FFF7B6FA10BDC04644
S1131950020C0040000C004010B50400FFF792FA9E
S11319600D4B0E4A1C700E4B0E4C588859880005BE
S1131970114059805988000F21405980110080225C
S1131980D2015C881442FCD15A8800020A40024306
S11319905A80FFF791FA10BD020C0040FFF0FFFFE0
S11319A0000C0040FFBFFFFF10B50C782402044375
S11319B0FFF7D2FF014BA4B25C8010BD000C0040C5
S11319C010B50400FFF75EFA054B1C70054B5C88EC
S11319D0FFF772FA2405240F2000FFF771FF10BDF2
S11319E0020C0040000C0040D37830B5002B35D1F8
S11319F01478802C03D0802324065B022343022521
S1131A005478AC4306D19478002C24D18024A402C9
S1131A10234341605478013C012C01D8124C2340EB
S1131A20A0248DB2E4052C431C438462D0240D0C05
S1131A3024062C431C438462D478002C0AD15B0313
S1131A4003D59378012B0CD181615378013B012B91
S1131A5000D8816030BDC024E402D9E7416000238E
S1131A60DEE74161F1E7C046FFFFFBFF10B503006D
S1131A700A004409C1090020814202D10449E0015D
S1131A8040181F210B401E399940FFF7ADFF10BDD0
S1131A9000440041704710B5FFF748FEFFF7FAFF16
S1131AA0FEF77EFDFFF7F6FF10BD00207047000033
S1131AB030B504001720032913D8104DAA4210D8BA
S1131AC0002B0FD080235B028B40206B0342FCD1A0
S1131AD080252D038D40A0682840FCD11C3189004D
S1131AE00A5130BD802040008840A3680340FCD1E7
S1131AF01031890061184A601800F2E7FFFFFF0007
S1131B00374A10B542600200002304002C324834E6
S1131B1003608372C372037343720372C36103620B
S1131B2043628362037543758375C3750376437695
S1131B30037443748374C374137053709370D370B9
S1131B40137153719371D371137253729372D3726D
S1131B500C32137053709370D3701371537193716B
S1131B60D371137253729372D37213735373937347
S1131B70D373011D23706370A370E37023716371C9
S1131B80A371E37123726372A372E37223736373A9
S1131B90A373E37350342370836583676370C365F1
S1131BA0C367A3700366CB6797310B700121303A8A
S1131BB04366D36794321370143A83661360537583
S1131BC00432C36613609374043203671360D373DF
S1131BD043670432A13013601173037010BDC04613
S1131BE0FFFFFF00F0B506008FB008000D001400E1
S1131BF0FFF75BFF2023A34A0990116A1C200B43C3
S1131C0013622B689B0707D42B68DB0704D49E4A16
S1131C102368934202D917200FB0F0BD6368934242
S1131C20F9D8230021001C332C3118689042F2D8D3
S1131C3004338B42F9D10022802102924904A01876
S1131C40007C012804D108009040029F07430297BA
S1131C500132042AF3D12200A1321278002A04D0DE
S1131C6080220299120111430291227A511E8A4163
S1131C7092000392627A012A02D1039911430391DB
S1131C80227B0692E27A0792002294465F7A032F1F
S1131C90C1D819780F29BED8F0205A780005090652
S1131CA0014012040A4399780192481E8141C901F6
S1131CB00491D9780322481E81411879C9000591FD
S1131CC0411E88410101602008919979BF024901B0
S1131CD0014058791040019A02430A43C021D8793F
S1131CE0890000020140E02011431A7AC001120366
S1131CF00240C0200001114307400F436146049A8B
S1131D000A331743059A1743089A17430CAA8F50AE
S1131D10042294446246082AB8D180220023520245
S1131D20022094460193FF30E218170050373F78A1
S1131D30002F04D067469F400199394301911F0049
S1131D404137D25D002A07D0022A00D098E0020071
S1131D509A400199114301910133082BE4D13022B7
S1131D600721637E1B011340227E0A401343802215
S1131D70049300235202E118097D002904D01100C4
S1131D8099400498084304900133042BF3D13100A3
S1131D900023321D343108C28A42FCD17363B36319
S1131DA0099B0AAA9800394B1100C65023003560DC
S1131DB0A0331B783C363370A37A11201370FFF7DD
S1131DC0F3FD1120FFF7B4FD23002700260078332C
S1131DD09837583605933B78002B0DD001230BA977
S1131DE08B700023CB702033F3181B7830780B7082
S1131DF001234B70FFF73AFE059B04360137B342CB
S1131E00E9D1069B079A1B0312021343029A134358
S1131E102B600423AA681A42FCD1FF232B71FB3BDD
S1131E20AA681A42FCD16B461B7B6B710C9BEB605E
S1131E300D9B2B61019BAB61154BAA681A42FCD127
S1131E40049BEB631023AA681A42FCD12368114A4D
S1131E506B63AB681340FCD162680F492A640A00C3
S1131E609A40A8681040FCD19A00A218D6691A00BA
S1131E7010329200AA1801335660042BEFD1CBE63E
S1131E80012265E700040040FFFFFF000802002074
S1131E90400002008000040000010800030010B5A7
S1131EA03C331B780068FFF703FE10BDF8B500252E
S1131EB00B4B8000C4582368626BDE6AA36B13402B
S1131EC01E40084BEF58374205D063195B68200069
S1131ED098472368DF620435302DF2D1F8BDC0463F
S1131EE008020020D428000010B50020FFF7DEFF10
S1131EF010BD931C9B001950037E022A04D10E329C
S1131F001343037600207047032A01D11D32F7E7FB
S1131F10012191400B43F4E770B50126144B800076
S1131F20C4582368227E657E9B7B15401D40354244
S1131F3004D0A3682000984723689E730226354284
S1131F4004D0E3682000984723689E731026354226
S1131F5004D023692000984723689E7320263542C5
S1131F6004D063692000984723689E7370BDC046FF
S1131F700C02002010B50020FFF7CEFF10BD10B5F5
S1131F800120FFF7C9FF10BD064B984207D0064A4F
S1131F900023904201D10133DBB2180070470023C3
S1131FA0FAE7C04600180042001C0042F0B50500E4
S1131FB085B0080014000E00FFF7E6FF6A461223FE
S1131FC0137153712E331381403353810023AB605B
S1131FD0EB602B616B612B766B767C4B8200D5506A
S1131FE02E60A3780700082B03D11720FA0700D529
S1131FF0D5E001222B7133880520134200D0CEE0B6
S1132000F37B1730DB0600D5C9E0022133880B408F
S113201000D0C4E0217C002908D003A9CB70237E22
S1132020207D8A700B704A70FFF720FD237F002B00
S11320300ED00022012303A9CA7024328B70A21887
S11320404B701F331278E31818780A70FFF70EFDEF
S11320507A00944668460822801862465C4B825A8D
S1132060196A0A431A62A278082A0AD1791C4A001A
S1132070944608216A4652186146186A525A024325
S11320801A626A462378694613706B460433DF5D2F
S11320903800FFF789FC3800FFF74AFC2389A2883F
S11320A0A1791A43A3780B4313436278002A02D020
S11320B08022120113432968CA7B52B2002AFBDB37
S11320C03380637B5A1E9341A27B9B00002A01D07C
S11320D0012213432968CA7B52B2002AFBDBFF2288
S11320E03271002B05D02968CA7B52B2002AFBDB6F
S11320F07371E37AA27A002B01D010231A43237B55
S1132100002B01D020231A432968CB7B5BB2002B20
S1132110FBDBB2712B68DA7B52B2002AFBDB2A7933
S1132120042A19D0082A3CD01720002A37D1DA7B98
S113213052B2002AFBDB238D33822A68D37B5BB245
S1132140002BFBDB638D33832A68D37B5BB2002BCC
S1132150FBDBA38D738321E0DA7B52B2002AFBDB25
S1132160230028331B7833742A68D37B5BB2002B9B
S1132170FBDB230029331B7833752A68D37B5BB2DE
S1132180002BFBDB23002A331B7833762A68D37BAE
S11321905BB2002BFBDB2B3423787376002005B075
S11321A0F0BDDA7B52B2002AFBDBA36A33612A68F2
S11321B0D37B5BB2002BFBDBE36AB3612A68D37B7E
S11321C05BB2002BFBDB236BF361E7E70C0200201F
S11321D00004004010B50468E37B5BB2002BFBDB1A
S11321E00379042B0CD0082B12D01720002B0ED10E
S11321F0172001290BD80C3192B249000A5305E08B
S11322001720012903D8D2B261180A76002010BD24
S113221017200129FBD8063189000A51F6E7FEE7A9
S11322202148224970B5884204D00023204CCA18A2
S1132230A24232D300211F4B1F4A934231D3FF21C4
S11322401E4B1F4A8B43936002220C250824302620
S11322501C4B1D485A62C378FC398B431343C3702B
S1132260C378AB432343C370184B987BB043060039
S1132270202030439873987BA84304439C73987B35
S1132280884302439A738023114A51680B43536075
S113229000F0C2FA00F022FAFEE7C55804331560D4
S11322A0C5E702C3C9E7C0464C290000000000206E
S11322B018000020180000203C020020000000004C
S11322C000ED00E0FC700041005000410048004176
S11322D00040004173B5022501AE2A0007493000D1
S11322E000F0BEFA3123064C66602380658021002D
S11322F00448FEF76FFF0028F9D173BD04290000DC
S11323000C0000201402002073B50225094901AE17
S11323102A004919300000F0A3FA3123064C666004
S11323202380658021000548FEF754FF0028F9D179
S113233073BDC046042900000C00002014020020D4
S113234073B50225094901AE2A000631300000F0B8
S113235087FA3123064C6660238065802100054896
S1132360FEF738FF0028F9D173BDC04604290000E8
S11323700C00002014020020F0B5214C022521009D
S113238085B00C312A00684600F06AFA210001AFDA
S11323900E312A00380000F063FA210002AE103139
S11323A02A00300000F05CFA21002A00123103A850
S11323B000F056FA3123134C23806B46658063602A
S11323C0114D21002800FEF705FF0028F8D16760B1
S11323D021002800FEF7FEFE0028F9D166602100E6
S11323E02800FEF7F7FE0028F9D103AB6360210053
S11323F02800FEF7EFFE0028F9D105B0F0BDC04675
S1132400042900000C00002014020020F0B5214C27
S11324100225210085B014312A00684600F020FA14
S1132420210001AF16312A00380000F019FA21000A
S11324302A00183102A800F013FA210003AE1A3161
S11324402A00300000F00CFA3123134C23806B4631
S113245065806360114D21002800FEF7BBFE002853
S1132460F8D1676021002800FEF7B4FE0028F9D1F6
S1132470666021002800FEF7ADFE0028F9D102AB0A
S1132480636021002800FEF7A5FE0028F9D105B0FD
S1132490F0BDC046042900000C00002014020020F6
S11324A073B5124C022521002A001C31684600F045
S11324B0D7F9210001AE1E312A00300000F0D0F916
S11324C031230B4C23806B4665806360094D2100EA
S11324D02800FEF77FFE0028F8D16660210028005E
S11324E0FEF778FE0028F9D173BDC0460429000028
S11324F00C0000201402002073B5124C02252100A8
S11325002A001C31684600F0ABF9210001AE2031ED
S11325102A00300000F0A4F931230B4C23806B46D1
S113252065806360094D21002800FEF753FE0028F2
S1132530F8D1666021002800FEF74CFE0028F9D18E
S113254073BDC046042900000C00002014020020C2
S113255073B5124C022521002A001C31684600F094
S11325607FF9210001AE22312A00300000F078F911
S113257031230B4C23806B4665806360094D210039
S11325802800FEF727FE0028F8D166602100280005
S1132590FEF720FE0028F9D173BDC04604290000CF
S11325A00C00002014020020F0B5214C022521006B
S11325B085B01C312A00684600F052F9210001AFB1
S11325C022312A00380000F04BF9210002AE2431F8
S11325D02A00300000F044F921002A00163103A833
S11325E000F03EF93123134C23806B466580636011
S11325F0114D21002800FEF7EDFD0028F8D1676099
S113260021002800FEF7E6FD0028F9D166602100CC
S11326102800FEF7DFFD0028F9D103AB6360210039
S11326202800FEF7D7FD0028F9D105B0F0BDC0465B
S1132630042900000C0000201402002080216423DF
S113264070B58EB001AA89031161012101931E4B5B
S113265049425360002391820A316944CB770CA923
S11326600B70312169440B703221694493601373F8
S11326701376D361136293620B70144ED7331386AF
S1132680134B14493000D382FEF742FC072235680D
S1132690EC691440FCD102232A6813432B60306890
S11326A0FEF770FF1F2318401E3B83400A4A136045
S11326B01022F088698B114203D101348442F9D38A
S11326C06A830EB070BDC046480D0000140200209D
S11326D0102700000010004200E100E010B5FEF7F2
S11326E061FBFEF7C9FBFEF715FAFAE702B471467F
S11326F049084900095C49008E4402BC7047C04641
S1132700002243088B4274D303098B425FD3030A2C
S11327108B4244D3030B8B4228D3030C8B420DD33F
S1132720FF22090212BA030C8B4202D312120902CD
S113273065D0030B8B4219D300E0090AC30B8B420B
S113274001D3CB03C01A5241830B8B4201D38B03B9
S1132750C01A5241430B8B4201D34B03C01A52415E
S1132760030B8B4201D30B03C01A5241C30A8B42A1
S113277001D3CB02C01A5241830A8B4201D38B028C
S1132780C01A5241430A8B4201D34B02C01A524130
S1132790030A8B4201D30B02C01A5241CDD2C309A2
S11327A08B4201D3CB01C01A524183098B4201D31E
S11327B08B01C01A524143098B4201D34B01C01A09
S11327C0524103098B4201D30B01C01A5241C30881
S11327D08B4201D3CB00C01A524183088B4201D3F0
S11327E08B00C01A524143088B4201D34B00C01ADC
S11327F05241411A00D20146524110467047FFE748
S113280001B5002000F006F802BDC0460029F7D04B
S113281076E770477047C04670B500260C4D0D4CE6
S1132820641BA410A64209D1002600F07FF80A4DCB
S11328300A4C641BA410A64205D170BDB300EB582A
S113284098470136EEE7B300EB5898470136F2E7B4
S11328503829000038290000382900003C290000EC
S1132860002310B59A4200D110BDCC5CC45401338E
S1132870F8E700000200000003000000040000006C
S11328800500000006000000070000000E00000024
S11328900F0000000A0000000B000000FFFF000012
S11328A0FFFF0000FFFF0000FFFF0000FFFF00002C
S11328B0FFFF0000FFFF0000FFFF0000FFFF00001C
S11328C0FFFF00000D0E000000080042000C004253
S11328D0001000420100000002000000040000009B
S11328E0080000000010000000200000004000006C
S11328F0008000000000010000000200000004004D
S11329000000080004040401041004050414041560
S11329100408012505EF021C0402018202320605A7
S1132920042008030809081502190000F8B5C04678
S1132930F8BC08BC9E467047B5000000F8B5C04618
S10F2940F8BC08BC9E4670478D000000E7
S113294C2C0100000A000000FF010000310002000D
S10B295C00000000000000006F
S9032221B9
